{
  "_format": "hh-sol-artifact-1",
  "contractName": "Profile",
  "sourceName": "contracts/Profile.sol",
  "abi": [
    {
      "inputs": [
        {
          "internalType": "string",
          "name": "desc",
          "type": "string"
        }
      ],
      "name": "changeDescription",
      "outputs": [],
      "stateMutability": "nonpayable",
      "type": "function"
    },
    {
      "inputs": [
        {
          "internalType": "string",
          "name": "name",
          "type": "string"
        },
        {
          "internalType": "string",
          "name": "desc",
          "type": "string"
        },
        {
          "internalType": "string",
          "name": "username",
          "type": "string"
        }
      ],
      "name": "createProfile",
      "outputs": [],
      "stateMutability": "nonpayable",
      "type": "function"
    },
    {
      "inputs": [],
      "name": "createdNewTrack",
      "outputs": [],
      "stateMutability": "nonpayable",
      "type": "function"
    },
    {
      "inputs": [],
      "name": "getProfile",
      "outputs": [
        {
          "components": [
            {
              "internalType": "string",
              "name": "name",
              "type": "string"
            },
            {
              "internalType": "uint256",
              "name": "totalTracksAdded",
              "type": "uint256"
            },
            {
              "internalType": "string",
              "name": "description",
              "type": "string"
            },
            {
              "internalType": "string",
              "name": "username",
              "type": "string"
            }
          ],
          "internalType": "struct SingleProfile",
          "name": "",
          "type": "tuple"
        }
      ],
      "stateMutability": "view",
      "type": "function"
    },
    {
      "inputs": [
        {
          "internalType": "string",
          "name": "username",
          "type": "string"
        }
      ],
      "name": "isUsernameExisted",
      "outputs": [
        {
          "internalType": "bool",
          "name": "",
          "type": "bool"
        }
      ],
      "stateMutability": "view",
      "type": "function"
    }
  ],
  "bytecode": "0x608060405234801561001057600080fd5b50610c4a806100206000396000f3fe608060405234801561001057600080fd5b50600436106100575760003560e01c80634af2f4b41461005c5780639841c82c14610066578063d6afc9b114610082578063e6120413146100a0578063e82d2a52146100bc575b600080fd5b6100646100ec565b005b610080600480360381019061007b9190610837565b610145565b005b61008a610271565b60405161009791906109f9565b60405180910390f35b6100ba60048036038101906100b591906107f6565b610487565b005b6100d660048036038101906100d191906107f6565b6104e0565b6040516100e391906109de565b60405180910390f35b6000803373ffffffffffffffffffffffffffffffffffffffff1673ffffffffffffffffffffffffffffffffffffffff168152602001908152602001600020600101600081548092919061013e90610b2d565b9190505550565b604051806080016040528084815260200160008152602001838152602001828152506000803373ffffffffffffffffffffffffffffffffffffffff1673ffffffffffffffffffffffffffffffffffffffff16815260200190815260200160002060008201518160000190805190602001906101c19291906106c3565b506020820151816001015560408201518160020190805190602001906101e89291906106c3565b5060608201518160030190805190602001906102059291906106c3565b509050506001339080600181540180825580915050600190039060005260206000200160009091909190916101000a81548173ffffffffffffffffffffffffffffffffffffffff021916908373ffffffffffffffffffffffffffffffffffffffff160217905550505050565b610279610749565b6000803373ffffffffffffffffffffffffffffffffffffffff1673ffffffffffffffffffffffffffffffffffffffff1681526020019081526020016000206040518060800160405290816000820180546102d290610afb565b80601f01602080910402602001604051908101604052809291908181526020018280546102fe90610afb565b801561034b5780601f106103205761010080835404028352916020019161034b565b820191906000526020600020905b81548152906001019060200180831161032e57829003601f168201915b505050505081526020016001820154815260200160028201805461036e90610afb565b80601f016020809104026020016040519081016040528092919081815260200182805461039a90610afb565b80156103e75780601f106103bc576101008083540402835291602001916103e7565b820191906000526020600020905b8154815290600101906020018083116103ca57829003601f168201915b5050505050815260200160038201805461040090610afb565b80601f016020809104026020016040519081016040528092919081815260200182805461042c90610afb565b80156104795780601f1061044e57610100808354040283529160200191610479565b820191906000526020600020905b81548152906001019060200180831161045c57829003601f168201915b505050505081525050905090565b806000803373ffffffffffffffffffffffffffffffffffffffff1673ffffffffffffffffffffffffffffffffffffffff16815260200190815260200160002060020190805190602001906104dc9291906106c3565b5050565b600080600090505b60018054905081101561064e5761062c60008060018481548110610535577f4e487b7100000000000000000000000000000000000000000000000000000000600052603260045260246000fd5b9060005260206000200160009054906101000a900473ffffffffffffffffffffffffffffffffffffffff1673ffffffffffffffffffffffffffffffffffffffff1673ffffffffffffffffffffffffffffffffffffffff16815260200190815260200160002060030180546105a890610afb565b80601f01602080910402602001604051908101604052809291908181526020018280546105d490610afb565b80156106215780601f106105f657610100808354040283529160200191610621565b820191906000526020600020905b81548152906001019060200180831161060457829003601f168201915b505050505084610659565b1561063b576001915050610654565b808061064690610b2d565b9150506104e8565b50600090505b919050565b60008160405160200161066c91906109c7565b604051602081830303815290604052805190602001208360405160200161069391906109c7565b6040516020818303038152906040528051906020012014156106b857600190506106bd565b600090505b92915050565b8280546106cf90610afb565b90600052602060002090601f0160209004810192826106f15760008555610738565b82601f1061070a57805160ff1916838001178555610738565b82800160010185558215610738579182015b8281111561073757825182559160200191906001019061071c565b5b5090506107459190610771565b5090565b6040518060800160405280606081526020016000815260200160608152602001606081525090565b5b8082111561078a576000816000905550600101610772565b5090565b60006107a161079c84610a4c565b610a1b565b9050828152602081018484840111156107b957600080fd5b6107c4848285610ab9565b509392505050565b600082601f8301126107dd57600080fd5b81356107ed84826020860161078e565b91505092915050565b60006020828403121561080857600080fd5b600082013567ffffffffffffffff81111561082257600080fd5b61082e848285016107cc565b91505092915050565b60008060006060848603121561084c57600080fd5b600084013567ffffffffffffffff81111561086657600080fd5b610872868287016107cc565b935050602084013567ffffffffffffffff81111561088f57600080fd5b61089b868287016107cc565b925050604084013567ffffffffffffffff8111156108b857600080fd5b6108c4868287016107cc565b9150509250925092565b6108d781610aa3565b82525050565b60006108e882610a7c565b6108f28185610a87565b9350610902818560208601610ac8565b61090b81610c03565b840191505092915050565b600061092182610a7c565b61092b8185610a98565b935061093b818560208601610ac8565b80840191505092915050565b6000608083016000830151848203600086015261096482826108dd565b915050602083015161097960208601826109b8565b506040830151848203604086015261099182826108dd565b915050606083015184820360608601526109ab82826108dd565b9150508091505092915050565b6109c181610aaf565b82525050565b60006109d38284610916565b915081905092915050565b60006020820190506109f360008301846108ce565b92915050565b60006020820190508181036000830152610a138184610947565b905092915050565b6000604051905081810181811067ffffffffffffffff82111715610a4257610a41610bd4565b5b8060405250919050565b600067ffffffffffffffff821115610a6757610a66610bd4565b5b601f19601f8301169050602081019050919050565b600081519050919050565b600082825260208201905092915050565b600081905092915050565b60008115159050919050565b6000819050919050565b82818337600083830152505050565b60005b83811015610ae6578082015181840152602081019050610acb565b83811115610af5576000848401525b50505050565b60006002820490506001821680610b1357607f821691505b60208210811415610b2757610b26610ba5565b5b50919050565b6000610b3882610aaf565b91507fffffffffffffffffffffffffffffffffffffffffffffffffffffffffffffffff821415610b6b57610b6a610b76565b5b600182019050919050565b7f4e487b7100000000000000000000000000000000000000000000000000000000600052601160045260246000fd5b7f4e487b7100000000000000000000000000000000000000000000000000000000600052602260045260246000fd5b7f4e487b7100000000000000000000000000000000000000000000000000000000600052604160045260246000fd5b6000601f19601f830116905091905056fea2646970667358221220d412d2b27925e3dde363ba4aaa41a3db8557ec929b9a25e779ae7829d063ae3864736f6c63430008000033",
  "linkReferences": {},
  "deployedLinkReferences": {}
}