{
  "_format": "hh-sol-artifact-1",
  "contractName": "Profile",
  "sourceName": "contracts/Profile.sol",
  "abi": [
    {
      "inputs": [
        {
          "internalType": "string",
          "name": "desc",
          "type": "string"
        }
      ],
      "name": "changeDescription",
      "outputs": [],
      "stateMutability": "nonpayable",
      "type": "function"
    },
    {
      "inputs": [
        {
          "internalType": "string",
          "name": "name",
          "type": "string"
        },
        {
          "internalType": "string",
          "name": "desc",
          "type": "string"
        },
        {
          "internalType": "string",
          "name": "username",
          "type": "string"
        },
        {
          "internalType": "uint256[]",
          "name": "liked_index",
          "type": "uint256[]"
        }
      ],
      "name": "createProfile",
      "outputs": [],
      "stateMutability": "nonpayable",
      "type": "function"
    },
    {
      "inputs": [],
      "name": "createdNewTrack",
      "outputs": [],
      "stateMutability": "nonpayable",
      "type": "function"
    },
    {
      "inputs": [],
      "name": "getProfile",
      "outputs": [
        {
          "components": [
            {
              "internalType": "string",
              "name": "name",
              "type": "string"
            },
            {
              "internalType": "uint256",
              "name": "totalTracksAdded",
              "type": "uint256"
            },
            {
              "internalType": "string",
              "name": "description",
              "type": "string"
            },
            {
              "internalType": "string",
              "name": "username",
              "type": "string"
            },
            {
              "internalType": "uint256[]",
              "name": "liked_index",
              "type": "uint256[]"
            }
          ],
          "internalType": "struct SingleProfile",
          "name": "",
          "type": "tuple"
        }
      ],
      "stateMutability": "view",
      "type": "function"
    },
    {
      "inputs": [
        {
          "internalType": "string",
          "name": "username",
          "type": "string"
        }
      ],
      "name": "isUsernameExisted",
      "outputs": [
        {
          "internalType": "bool",
          "name": "",
          "type": "bool"
        }
      ],
      "stateMutability": "view",
      "type": "function"
    },
    {
      "inputs": [
        {
          "internalType": "uint256",
          "name": "index",
          "type": "uint256"
        }
      ],
      "name": "likeSong",
      "outputs": [],
      "stateMutability": "nonpayable",
      "type": "function"
    },
    {
      "inputs": [],
      "name": "likedSongs",
      "outputs": [
        {
          "internalType": "uint256[]",
          "name": "",
          "type": "uint256[]"
        }
      ],
      "stateMutability": "view",
      "type": "function"
    },
    {
      "inputs": [
        {
          "internalType": "uint256",
          "name": "index",
          "type": "uint256"
        }
      ],
      "name": "unlikeSong",
      "outputs": [],
      "stateMutability": "nonpayable",
      "type": "function"
    }
  ],
  "bytecode": "0x608060405234801561001057600080fd5b50611423806100206000396000f3fe608060405234801561001057600080fd5b50600436106100885760003560e01c8063d6afc9b11161005b578063d6afc9b1146100ed578063e61204131461010b578063e82d2a5214610127578063efd3221f1461015757610088565b80633c279b4e1461008d5780634af2f4b4146100a95780635bbf0f0f146100b3578063cf1a5c15146100cf575b600080fd5b6100a760048036038101906100a29190610ead565b610173565b005b6100b16101de565b005b6100cd60048036038101906100c89190610dea565b610237565b005b6100d7610387565b6040516100e491906110d4565b60405180910390f35b6100f561041e565b6040516101029190611111565b60405180910390f35b61012560048036038101906101209190610da9565b61068c565b005b610141600480360381019061013c9190610da9565b6106e5565b60405161014e91906110f6565b60405180910390f35b610171600480360381019061016c9190610ead565b61085e565b005b6000803373ffffffffffffffffffffffffffffffffffffffff1673ffffffffffffffffffffffffffffffffffffffff16815260200190815260200160002060040181908060018154018082558091505060019003906000526020600020016000909190919091505550565b6000803373ffffffffffffffffffffffffffffffffffffffff1673ffffffffffffffffffffffffffffffffffffffff1681526020019081526020016000206001016000815480929190610230906112ef565b9190505550565b6040518060a0016040528085815260200160008152602001848152602001838152602001828152506000803373ffffffffffffffffffffffffffffffffffffffff1673ffffffffffffffffffffffffffffffffffffffff16815260200190815260200160002060008201518160000190805190602001906102b9929190610b77565b506020820151816001015560408201518160020190805190602001906102e0929190610b77565b5060608201518160030190805190602001906102fd929190610b77565b50608082015181600401908051906020019061031a929190610bfd565b509050506001339080600181540180825580915050600190039060005260206000200160009091909190916101000a81548173ffffffffffffffffffffffffffffffffffffffff021916908373ffffffffffffffffffffffffffffffffffffffff16021790555050505050565b60606000803373ffffffffffffffffffffffffffffffffffffffff1673ffffffffffffffffffffffffffffffffffffffff16815260200190815260200160002060040180548060200260200160405190810160405280929190818152602001828054801561041457602002820191906000526020600020905b815481526020019060010190808311610400575b5050505050905090565b610426610c4a565b6000803373ffffffffffffffffffffffffffffffffffffffff1673ffffffffffffffffffffffffffffffffffffffff1681526020019081526020016000206040518060a001604052908160008201805461047f906112bd565b80601f01602080910402602001604051908101604052809291908181526020018280546104ab906112bd565b80156104f85780601f106104cd576101008083540402835291602001916104f8565b820191906000526020600020905b8154815290600101906020018083116104db57829003601f168201915b505050505081526020016001820154815260200160028201805461051b906112bd565b80601f0160208091040260200160405190810160405280929190818152602001828054610547906112bd565b80156105945780601f1061056957610100808354040283529160200191610594565b820191906000526020600020905b81548152906001019060200180831161057757829003601f168201915b505050505081526020016003820180546105ad906112bd565b80601f01602080910402602001604051908101604052809291908181526020018280546105d9906112bd565b80156106265780601f106105fb57610100808354040283529160200191610626565b820191906000526020600020905b81548152906001019060200180831161060957829003601f168201915b505050505081526020016004820180548060200260200160405190810160405280929190818152602001828054801561067e57602002820191906000526020600020905b81548152602001906001019080831161066a575b505050505081525050905090565b806000803373ffffffffffffffffffffffffffffffffffffffff1673ffffffffffffffffffffffffffffffffffffffff16815260200190815260200160002060020190805190602001906106e1929190610b77565b5050565b600080600090505b600180549050811015610853576108316000806001848154811061073a577f4e487b7100000000000000000000000000000000000000000000000000000000600052603260045260246000fd5b9060005260206000200160009054906101000a900473ffffffffffffffffffffffffffffffffffffffff1673ffffffffffffffffffffffffffffffffffffffff1673ffffffffffffffffffffffffffffffffffffffff16815260200190815260200160002060030180546107ad906112bd565b80601f01602080910402602001604051908101604052809291908181526020018280546107d9906112bd565b80156108265780601f106107fb57610100808354040283529160200191610826565b820191906000526020600020905b81548152906001019060200180831161080957829003601f168201915b505050505084610b0d565b15610840576001915050610859565b808061084b906112ef565b9150506106ed565b50600090505b919050565b6000805b60016000803373ffffffffffffffffffffffffffffffffffffffff1673ffffffffffffffffffffffffffffffffffffffff168152602001908152602001600020600401805490506108b39190611231565b811015610a7b57826000803373ffffffffffffffffffffffffffffffffffffffff1673ffffffffffffffffffffffffffffffffffffffff1681526020019081526020016000206004018281548110610934577f4e487b7100000000000000000000000000000000000000000000000000000000600052603260045260246000fd5b9060005260206000200154141561094a57600191505b8115610a68576000803373ffffffffffffffffffffffffffffffffffffffff1673ffffffffffffffffffffffffffffffffffffffff16815260200190815260200160002060040181815481106109c9577f4e487b7100000000000000000000000000000000000000000000000000000000600052603260045260246000fd5b90600052602060002001546000803373ffffffffffffffffffffffffffffffffffffffff1673ffffffffffffffffffffffffffffffffffffffff168152602001908152602001600020600401600183610a229190611231565b81548110610a59577f4e487b7100000000000000000000000000000000000000000000000000000000600052603260045260246000fd5b90600052602060002001819055505b8080610a73906112ef565b915050610862565b506000803373ffffffffffffffffffffffffffffffffffffffff1673ffffffffffffffffffffffffffffffffffffffff168152602001908152602001600020600401805480610af3577f4e487b7100000000000000000000000000000000000000000000000000000000600052603160045260246000fd5b600190038181906000526020600020016000905590555050565b600081604051602001610b2091906110bd565b6040516020818303038152906040528051906020012083604051602001610b4791906110bd565b604051602081830303815290604052805190602001201415610b6c5760019050610b71565b600090505b92915050565b828054610b83906112bd565b90600052602060002090601f016020900481019282610ba55760008555610bec565b82601f10610bbe57805160ff1916838001178555610bec565b82800160010185558215610bec579182015b82811115610beb578251825591602001919060010190610bd0565b5b509050610bf99190610c79565b5090565b828054828255906000526020600020908101928215610c39579160200282015b82811115610c38578251825591602001919060010190610c1d565b5b509050610c469190610c79565b5090565b6040518060a0016040528060608152602001600081526020016060815260200160608152602001606081525090565b5b80821115610c92576000816000905550600101610c7a565b5090565b6000610ca9610ca484611164565b611133565b90508083825260208201905082856020860282011115610cc857600080fd5b60005b85811015610cf85781610cde8882610d94565b845260208401935060208301925050600181019050610ccb565b5050509392505050565b6000610d15610d1084611190565b611133565b905082815260208101848484011115610d2d57600080fd5b610d3884828561127b565b509392505050565b600082601f830112610d5157600080fd5b8135610d61848260208601610c96565b91505092915050565b600082601f830112610d7b57600080fd5b8135610d8b848260208601610d02565b91505092915050565b600081359050610da3816113d6565b92915050565b600060208284031215610dbb57600080fd5b600082013567ffffffffffffffff811115610dd557600080fd5b610de184828501610d6a565b91505092915050565b60008060008060808587031215610e0057600080fd5b600085013567ffffffffffffffff811115610e1a57600080fd5b610e2687828801610d6a565b945050602085013567ffffffffffffffff811115610e4357600080fd5b610e4f87828801610d6a565b935050604085013567ffffffffffffffff811115610e6c57600080fd5b610e7887828801610d6a565b925050606085013567ffffffffffffffff811115610e9557600080fd5b610ea187828801610d40565b91505092959194509250565b600060208284031215610ebf57600080fd5b6000610ecd84828501610d94565b91505092915050565b6000610ee283836110ae565b60208301905092915050565b6000610ef9826111d0565b610f0381856111f3565b9350610f0e836111c0565b8060005b83811015610f3f578151610f268882610ed6565b9750610f31836111e6565b925050600181019050610f12565b5085935050505092915050565b6000610f57826111d0565b610f618185611204565b9350610f6c836111c0565b8060005b83811015610f9d578151610f848882610ed6565b9750610f8f836111e6565b925050600181019050610f70565b5085935050505092915050565b610fb381611265565b82525050565b6000610fc4826111db565b610fce8185611215565b9350610fde81856020860161128a565b610fe7816113c5565b840191505092915050565b6000610ffd826111db565b6110078185611226565b935061101781856020860161128a565b80840191505092915050565b600060a08301600083015184820360008601526110408282610fb9565b915050602083015161105560208601826110ae565b506040830151848203604086015261106d8282610fb9565b915050606083015184820360608601526110878282610fb9565b915050608083015184820360808601526110a18282610eee565b9150508091505092915050565b6110b781611271565b82525050565b60006110c98284610ff2565b915081905092915050565b600060208201905081810360008301526110ee8184610f4c565b905092915050565b600060208201905061110b6000830184610faa565b92915050565b6000602082019050818103600083015261112b8184611023565b905092915050565b6000604051905081810181811067ffffffffffffffff8211171561115a57611159611396565b5b8060405250919050565b600067ffffffffffffffff82111561117f5761117e611396565b5b602082029050602081019050919050565b600067ffffffffffffffff8211156111ab576111aa611396565b5b601f19601f8301169050602081019050919050565b6000819050602082019050919050565b600081519050919050565b600081519050919050565b6000602082019050919050565b600082825260208201905092915050565b600082825260208201905092915050565b600082825260208201905092915050565b600081905092915050565b600061123c82611271565b915061124783611271565b92508282101561125a57611259611338565b5b828203905092915050565b60008115159050919050565b6000819050919050565b82818337600083830152505050565b60005b838110156112a857808201518184015260208101905061128d565b838111156112b7576000848401525b50505050565b600060028204905060018216806112d557607f821691505b602082108114156112e9576112e8611367565b5b50919050565b60006112fa82611271565b91507fffffffffffffffffffffffffffffffffffffffffffffffffffffffffffffffff82141561132d5761132c611338565b5b600182019050919050565b7f4e487b7100000000000000000000000000000000000000000000000000000000600052601160045260246000fd5b7f4e487b7100000000000000000000000000000000000000000000000000000000600052602260045260246000fd5b7f4e487b7100000000000000000000000000000000000000000000000000000000600052604160045260246000fd5b6000601f19601f8301169050919050565b6113df81611271565b81146113ea57600080fd5b5056fea26469706673582212200c9c033f4b0c2c67dbb0357125d208bd726b848dbce0f2b260c6c8a42f9fa0be64736f6c63430008000033",
  "linkReferences": {},
  "deployedLinkReferences": {}
}