{
  "_format": "hh-sol-artifact-1",
  "contractName": "Tracks",
  "sourceName": "contracts/Tracks.sol",
  "abi": [
    {
      "inputs": [
        {
          "internalType": "string",
          "name": "name",
          "type": "string"
        },
        {
          "internalType": "uint256",
          "name": "track_id",
          "type": "uint256"
        },
        {
          "internalType": "string",
          "name": "imgUrl",
          "type": "string"
        },
        {
          "internalType": "string",
          "name": "IPFS_hash",
          "type": "string"
        },
        {
          "internalType": "string",
          "name": "description",
          "type": "string"
        },
        {
          "internalType": "string[]",
          "name": "artists",
          "type": "string[]"
        },
        {
          "internalType": "string",
          "name": "album",
          "type": "string"
        },
        {
          "internalType": "string",
          "name": "added_by_name",
          "type": "string"
        }
      ],
      "name": "addTrack",
      "outputs": [],
      "stateMutability": "nonpayable",
      "type": "function"
    },
    {
      "inputs": [],
      "name": "getAllTracks",
      "outputs": [
        {
          "components": [
            {
              "internalType": "string",
              "name": "name",
              "type": "string"
            },
            {
              "internalType": "uint256",
              "name": "trackId",
              "type": "uint256"
            },
            {
              "internalType": "uint256",
              "name": "length",
              "type": "uint256"
            },
            {
              "internalType": "string",
              "name": "imgUrl",
              "type": "string"
            },
            {
              "internalType": "string",
              "name": "IPFSHash",
              "type": "string"
            },
            {
              "internalType": "string",
              "name": "description",
              "type": "string"
            },
            {
              "internalType": "uint256",
              "name": "timestamp",
              "type": "uint256"
            },
            {
              "internalType": "address",
              "name": "addedBy",
              "type": "address"
            },
            {
              "internalType": "string",
              "name": "addedByName",
              "type": "string"
            },
            {
              "internalType": "string",
              "name": "album",
              "type": "string"
            },
            {
              "internalType": "string[]",
              "name": "artists",
              "type": "string[]"
            },
            {
              "internalType": "bool",
              "name": "isDeleted",
              "type": "bool"
            }
          ],
          "internalType": "struct Track[]",
          "name": "",
          "type": "tuple[]"
        }
      ],
      "stateMutability": "view",
      "type": "function"
    },
    {
      "inputs": [
        {
          "internalType": "string",
          "name": "artist",
          "type": "string"
        }
      ],
      "name": "getArtistTracks",
      "outputs": [
        {
          "components": [
            {
              "internalType": "string",
              "name": "name",
              "type": "string"
            },
            {
              "internalType": "uint256",
              "name": "trackId",
              "type": "uint256"
            },
            {
              "internalType": "uint256",
              "name": "length",
              "type": "uint256"
            },
            {
              "internalType": "string",
              "name": "imgUrl",
              "type": "string"
            },
            {
              "internalType": "string",
              "name": "IPFSHash",
              "type": "string"
            },
            {
              "internalType": "string",
              "name": "description",
              "type": "string"
            },
            {
              "internalType": "uint256",
              "name": "timestamp",
              "type": "uint256"
            },
            {
              "internalType": "address",
              "name": "addedBy",
              "type": "address"
            },
            {
              "internalType": "string",
              "name": "addedByName",
              "type": "string"
            },
            {
              "internalType": "string",
              "name": "album",
              "type": "string"
            },
            {
              "internalType": "string[]",
              "name": "artists",
              "type": "string[]"
            },
            {
              "internalType": "bool",
              "name": "isDeleted",
              "type": "bool"
            }
          ],
          "internalType": "struct Track[]",
          "name": "",
          "type": "tuple[]"
        }
      ],
      "stateMutability": "view",
      "type": "function"
    },
    {
      "inputs": [
        {
          "internalType": "string",
          "name": "track_name",
          "type": "string"
        }
      ],
      "name": "getTracks",
      "outputs": [
        {
          "components": [
            {
              "internalType": "string",
              "name": "name",
              "type": "string"
            },
            {
              "internalType": "uint256",
              "name": "trackId",
              "type": "uint256"
            },
            {
              "internalType": "uint256",
              "name": "length",
              "type": "uint256"
            },
            {
              "internalType": "string",
              "name": "imgUrl",
              "type": "string"
            },
            {
              "internalType": "string",
              "name": "IPFSHash",
              "type": "string"
            },
            {
              "internalType": "string",
              "name": "description",
              "type": "string"
            },
            {
              "internalType": "uint256",
              "name": "timestamp",
              "type": "uint256"
            },
            {
              "internalType": "address",
              "name": "addedBy",
              "type": "address"
            },
            {
              "internalType": "string",
              "name": "addedByName",
              "type": "string"
            },
            {
              "internalType": "string",
              "name": "album",
              "type": "string"
            },
            {
              "internalType": "string[]",
              "name": "artists",
              "type": "string[]"
            },
            {
              "internalType": "bool",
              "name": "isDeleted",
              "type": "bool"
            }
          ],
          "internalType": "struct Track[]",
          "name": "",
          "type": "tuple[]"
        }
      ],
      "stateMutability": "view",
      "type": "function"
    },
    {
      "inputs": [],
      "name": "getTracksAddedByArtist",
      "outputs": [
        {
          "components": [
            {
              "internalType": "string",
              "name": "name",
              "type": "string"
            },
            {
              "internalType": "uint256",
              "name": "trackId",
              "type": "uint256"
            },
            {
              "internalType": "uint256",
              "name": "length",
              "type": "uint256"
            },
            {
              "internalType": "string",
              "name": "imgUrl",
              "type": "string"
            },
            {
              "internalType": "string",
              "name": "IPFSHash",
              "type": "string"
            },
            {
              "internalType": "string",
              "name": "description",
              "type": "string"
            },
            {
              "internalType": "uint256",
              "name": "timestamp",
              "type": "uint256"
            },
            {
              "internalType": "address",
              "name": "addedBy",
              "type": "address"
            },
            {
              "internalType": "string",
              "name": "addedByName",
              "type": "string"
            },
            {
              "internalType": "string",
              "name": "album",
              "type": "string"
            },
            {
              "internalType": "string[]",
              "name": "artists",
              "type": "string[]"
            },
            {
              "internalType": "bool",
              "name": "isDeleted",
              "type": "bool"
            }
          ],
          "internalType": "struct Track[]",
          "name": "",
          "type": "tuple[]"
        }
      ],
      "stateMutability": "view",
      "type": "function"
    },
    {
      "inputs": [],
      "name": "totalTracks",
      "outputs": [
        {
          "internalType": "uint256",
          "name": "",
          "type": "uint256"
        }
      ],
      "stateMutability": "view",
      "type": "function"
    }
  ],
  "bytecode": "0x608060405234801561001057600080fd5b50612d2c806100206000396000f3fe608060405234801561001057600080fd5b50600436106100625760003560e01c80630a40380f1461006757806340dee0b5146100855780635176b120146100a357806360281d54146100bf578063b421ac16146100ef578063c0678a661461011f575b600080fd5b61006f61013d565b60405161007c9190612983565b60405180910390f35b61008d6108d8565b60405161009a91906129a5565b60405180910390f35b6100bd60048036038101906100b89190612518565b6108e4565b005b6100d960048036038101906100d491906124d7565b610af8565b6040516100e69190612983565b60405180910390f35b610109600480360381019061010491906124d7565b61131b565b6040516101169190612983565b60405180910390f35b610127611bcc565b6040516101349190612983565b60405180910390f35b60606000805b600080549050811015610211573373ffffffffffffffffffffffffffffffffffffffff16600082815481106101a1577f4e487b7100000000000000000000000000000000000000000000000000000000600052603260045260246000fd5b90600052602060002090600c020160070160009054906101000a900473ffffffffffffffffffffffffffffffffffffffff1673ffffffffffffffffffffffffffffffffffffffff1614156101fe5781806101fa90612bf8565b9250505b808061020990612bf8565b915050610143565b5060008167ffffffffffffffff811115610254577f4e487b7100000000000000000000000000000000000000000000000000000000600052604160045260246000fd5b60405190808252806020026020018201604052801561028d57816020015b61027a6121f3565b8152602001906001900390816102725790505b5090506000805b6000805490508110156108ce573373ffffffffffffffffffffffffffffffffffffffff16600082815481106102f2577f4e487b7100000000000000000000000000000000000000000000000000000000600052603260045260246000fd5b90600052602060002090600c020160070160009054906101000a900473ffffffffffffffffffffffffffffffffffffffff1673ffffffffffffffffffffffffffffffffffffffff1614156108bb576000818154811061037a577f4e487b7100000000000000000000000000000000000000000000000000000000600052603260045260246000fd5b90600052602060002090600c0201604051806101800160405290816000820180546103a490612bc6565b80601f01602080910402602001604051908101604052809291908181526020018280546103d090612bc6565b801561041d5780601f106103f25761010080835404028352916020019161041d565b820191906000526020600020905b81548152906001019060200180831161040057829003601f168201915b50505050508152602001600182015481526020016002820154815260200160038201805461044a90612bc6565b80601f016020809104026020016040519081016040528092919081815260200182805461047690612bc6565b80156104c35780601f10610498576101008083540402835291602001916104c3565b820191906000526020600020905b8154815290600101906020018083116104a657829003601f168201915b505050505081526020016004820180546104dc90612bc6565b80601f016020809104026020016040519081016040528092919081815260200182805461050890612bc6565b80156105555780601f1061052a57610100808354040283529160200191610555565b820191906000526020600020905b81548152906001019060200180831161053857829003601f168201915b5050505050815260200160058201805461056e90612bc6565b80601f016020809104026020016040519081016040528092919081815260200182805461059a90612bc6565b80156105e75780601f106105bc576101008083540402835291602001916105e7565b820191906000526020600020905b8154815290600101906020018083116105ca57829003601f168201915b50505050508152602001600682015481526020016007820160009054906101000a900473ffffffffffffffffffffffffffffffffffffffff1673ffffffffffffffffffffffffffffffffffffffff1673ffffffffffffffffffffffffffffffffffffffff16815260200160088201805461066090612bc6565b80601f016020809104026020016040519081016040528092919081815260200182805461068c90612bc6565b80156106d95780601f106106ae576101008083540402835291602001916106d9565b820191906000526020600020905b8154815290600101906020018083116106bc57829003601f168201915b505050505081526020016009820180546106f290612bc6565b80601f016020809104026020016040519081016040528092919081815260200182805461071e90612bc6565b801561076b5780601f106107405761010080835404028352916020019161076b565b820191906000526020600020905b81548152906001019060200180831161074e57829003601f168201915b50505050508152602001600a8201805480602002602001604051908101604052809291908181526020016000905b828210156108455783829060005260206000200180546107b890612bc6565b80601f01602080910402602001604051908101604052809291908181526020018280546107e490612bc6565b80156108315780601f1061080657610100808354040283529160200191610831565b820191906000526020600020905b81548152906001019060200180831161081457829003601f168201915b505050505081526020019060010190610799565b505050508152602001600b820160009054906101000a900460ff1615151515815250508383815181106108a1577f4e487b7100000000000000000000000000000000000000000000000000000000600052603260045260246000fd5b602002602001018190525081806108b790612bf8565b9250505b80806108c690612bf8565b915050610294565b5081935050505090565b60008080549050905090565b600060016000805490506108f89190612ae6565b905060006040518061018001604052808c81526020018b81526020018381526020018981526020018881526020018781526020014281526020013373ffffffffffffffffffffffffffffffffffffffff16815260200184815260200185815260200186815260200160001515815250905060008190806001815401808255809150506001900390600052602060002090600c020160009091909190915060008201518160000190805190602001906109b192919061226c565b50602082015181600101556040820151816002015560608201518160030190805190602001906109e292919061226c565b5060808201518160040190805190602001906109ff92919061226c565b5060a0820151816005019080519060200190610a1c92919061226c565b5060c0820151816006015560e08201518160070160006101000a81548173ffffffffffffffffffffffffffffffffffffffff021916908373ffffffffffffffffffffffffffffffffffffffff160217905550610100820151816008019080519060200190610a8b92919061226c565b50610120820151816009019080519060200190610aa992919061226c565b5061014082015181600a019080519060200190610ac79291906122f2565b5061016082015181600b0160006101000a81548160ff02191690831515021790555050505050505050505050505050565b60606000805b600080549050811015610c0f57610be860008281548110610b48577f4e487b7100000000000000000000000000000000000000000000000000000000600052603260045260246000fd5b90600052602060002090600c02016000018054610b6490612bc6565b80601f0160208091040260200160405190810160405280929190818152602001828054610b9090612bc6565b8015610bdd5780601f10610bb257610100808354040283529160200191610bdd565b820191906000526020600020905b815481529060010190602001808311610bc057829003601f168201915b505050505085612100565b15610bfc578180610bf890612bf8565b9250505b8080610c0790612bf8565b915050610afe565b5060008167ffffffffffffffff811115610c52577f4e487b7100000000000000000000000000000000000000000000000000000000600052604160045260246000fd5b604051908082528060200260200182016040528015610c8b57816020015b610c786121f3565b815260200190600190039081610c705790505b5090506000805b60008054905081101561130f57610d7c60008281548110610cdc577f4e487b7100000000000000000000000000000000000000000000000000000000600052603260045260246000fd5b90600052602060002090600c02016000018054610cf890612bc6565b80601f0160208091040260200160405190810160405280929190818152602001828054610d2490612bc6565b8015610d715780601f10610d4657610100808354040283529160200191610d71565b820191906000526020600020905b815481529060010190602001808311610d5457829003601f168201915b505050505087612100565b156112fc5760008181548110610dbb577f4e487b7100000000000000000000000000000000000000000000000000000000600052603260045260246000fd5b90600052602060002090600c020160405180610180016040529081600082018054610de590612bc6565b80601f0160208091040260200160405190810160405280929190818152602001828054610e1190612bc6565b8015610e5e5780601f10610e3357610100808354040283529160200191610e5e565b820191906000526020600020905b815481529060010190602001808311610e4157829003601f168201915b505050505081526020016001820154815260200160028201548152602001600382018054610e8b90612bc6565b80601f0160208091040260200160405190810160405280929190818152602001828054610eb790612bc6565b8015610f045780601f10610ed957610100808354040283529160200191610f04565b820191906000526020600020905b815481529060010190602001808311610ee757829003601f168201915b50505050508152602001600482018054610f1d90612bc6565b80601f0160208091040260200160405190810160405280929190818152602001828054610f4990612bc6565b8015610f965780601f10610f6b57610100808354040283529160200191610f96565b820191906000526020600020905b815481529060010190602001808311610f7957829003601f168201915b50505050508152602001600582018054610faf90612bc6565b80601f0160208091040260200160405190810160405280929190818152602001828054610fdb90612bc6565b80156110285780601f10610ffd57610100808354040283529160200191611028565b820191906000526020600020905b81548152906001019060200180831161100b57829003601f168201915b50505050508152602001600682015481526020016007820160009054906101000a900473ffffffffffffffffffffffffffffffffffffffff1673ffffffffffffffffffffffffffffffffffffffff1673ffffffffffffffffffffffffffffffffffffffff1681526020016008820180546110a190612bc6565b80601f01602080910402602001604051908101604052809291908181526020018280546110cd90612bc6565b801561111a5780601f106110ef5761010080835404028352916020019161111a565b820191906000526020600020905b8154815290600101906020018083116110fd57829003601f168201915b5050505050815260200160098201805461113390612bc6565b80601f016020809104026020016040519081016040528092919081815260200182805461115f90612bc6565b80156111ac5780601f10611181576101008083540402835291602001916111ac565b820191906000526020600020905b81548152906001019060200180831161118f57829003601f168201915b50505050508152602001600a8201805480602002602001604051908101604052809291908181526020016000905b828210156112865783829060005260206000200180546111f990612bc6565b80601f016020809104026020016040519081016040528092919081815260200182805461122590612bc6565b80156112725780601f1061124757610100808354040283529160200191611272565b820191906000526020600020905b81548152906001019060200180831161125557829003601f168201915b5050505050815260200190600101906111da565b505050508152602001600b820160009054906101000a900460ff1615151515815250508383815181106112e2577f4e487b7100000000000000000000000000000000000000000000000000000000600052603260045260246000fd5b602002602001018190525081806112f890612bf8565b9250505b808061130790612bf8565b915050610c92565b50819350505050919050565b60606000805b600080549050811015611479576114526000828154811061136b577f4e487b7100000000000000000000000000000000000000000000000000000000600052603260045260246000fd5b90600052602060002090600c0201600a01805480602002602001604051908101604052809291908181526020016000905b828210156114485783829060005260206000200180546113bb90612bc6565b80601f01602080910402602001604051908101604052809291908181526020018280546113e790612bc6565b80156114345780601f1061140957610100808354040283529160200191611434565b820191906000526020600020905b81548152906001019060200180831161141757829003601f168201915b50505050508152602001906001019061139c565b505050508561216a565b1561146657818061146290612bf8565b9250505b808061147190612bf8565b915050611321565b5060008167ffffffffffffffff8111156114bc577f4e487b7100000000000000000000000000000000000000000000000000000000600052604160045260246000fd5b6040519080825280602002602001820160405280156114f557816020015b6114e26121f3565b8152602001906001900390816114da5790505b5090506000805b600080549050811015611bc05761162d60008281548110611546577f4e487b7100000000000000000000000000000000000000000000000000000000600052603260045260246000fd5b90600052602060002090600c0201600a01805480602002602001604051908101604052809291908181526020016000905b8282101561162357838290600052602060002001805461159690612bc6565b80601f01602080910402602001604051908101604052809291908181526020018280546115c290612bc6565b801561160f5780601f106115e45761010080835404028352916020019161160f565b820191906000526020600020905b8154815290600101906020018083116115f257829003601f168201915b505050505081526020019060010190611577565b505050508761216a565b15611bad576000818154811061166c577f4e487b7100000000000000000000000000000000000000000000000000000000600052603260045260246000fd5b90600052602060002090600c02016040518061018001604052908160008201805461169690612bc6565b80601f01602080910402602001604051908101604052809291908181526020018280546116c290612bc6565b801561170f5780601f106116e45761010080835404028352916020019161170f565b820191906000526020600020905b8154815290600101906020018083116116f257829003601f168201915b50505050508152602001600182015481526020016002820154815260200160038201805461173c90612bc6565b80601f016020809104026020016040519081016040528092919081815260200182805461176890612bc6565b80156117b55780601f1061178a576101008083540402835291602001916117b5565b820191906000526020600020905b81548152906001019060200180831161179857829003601f168201915b505050505081526020016004820180546117ce90612bc6565b80601f01602080910402602001604051908101604052809291908181526020018280546117fa90612bc6565b80156118475780601f1061181c57610100808354040283529160200191611847565b820191906000526020600020905b81548152906001019060200180831161182a57829003601f168201915b5050505050815260200160058201805461186090612bc6565b80601f016020809104026020016040519081016040528092919081815260200182805461188c90612bc6565b80156118d95780601f106118ae576101008083540402835291602001916118d9565b820191906000526020600020905b8154815290600101906020018083116118bc57829003601f168201915b50505050508152602001600682015481526020016007820160009054906101000a900473ffffffffffffffffffffffffffffffffffffffff1673ffffffffffffffffffffffffffffffffffffffff1673ffffffffffffffffffffffffffffffffffffffff16815260200160088201805461195290612bc6565b80601f016020809104026020016040519081016040528092919081815260200182805461197e90612bc6565b80156119cb5780601f106119a0576101008083540402835291602001916119cb565b820191906000526020600020905b8154815290600101906020018083116119ae57829003601f168201915b505050505081526020016009820180546119e490612bc6565b80601f0160208091040260200160405190810160405280929190818152602001828054611a1090612bc6565b8015611a5d5780601f10611a3257610100808354040283529160200191611a5d565b820191906000526020600020905b815481529060010190602001808311611a4057829003601f168201915b50505050508152602001600a8201805480602002602001604051908101604052809291908181526020016000905b82821015611b37578382906000526020600020018054611aaa90612bc6565b80601f0160208091040260200160405190810160405280929190818152602001828054611ad690612bc6565b8015611b235780601f10611af857610100808354040283529160200191611b23565b820191906000526020600020905b815481529060010190602001808311611b0657829003601f168201915b505050505081526020019060010190611a8b565b505050508152602001600b820160009054906101000a900460ff161515151581525050838381518110611b93577f4e487b7100000000000000000000000000000000000000000000000000000000600052603260045260246000fd5b60200260200101819052508180611ba990612bf8565b9250505b8080611bb890612bf8565b9150506114fc565b50819350505050919050565b60606000805480602002602001604051908101604052809291908181526020016000905b828210156120f757838290600052602060002090600c020160405180610180016040529081600082018054611c2490612bc6565b80601f0160208091040260200160405190810160405280929190818152602001828054611c5090612bc6565b8015611c9d5780601f10611c7257610100808354040283529160200191611c9d565b820191906000526020600020905b815481529060010190602001808311611c8057829003601f168201915b505050505081526020016001820154815260200160028201548152602001600382018054611cca90612bc6565b80601f0160208091040260200160405190810160405280929190818152602001828054611cf690612bc6565b8015611d435780601f10611d1857610100808354040283529160200191611d43565b820191906000526020600020905b815481529060010190602001808311611d2657829003601f168201915b50505050508152602001600482018054611d5c90612bc6565b80601f0160208091040260200160405190810160405280929190818152602001828054611d8890612bc6565b8015611dd55780601f10611daa57610100808354040283529160200191611dd5565b820191906000526020600020905b815481529060010190602001808311611db857829003601f168201915b50505050508152602001600582018054611dee90612bc6565b80601f0160208091040260200160405190810160405280929190818152602001828054611e1a90612bc6565b8015611e675780601f10611e3c57610100808354040283529160200191611e67565b820191906000526020600020905b815481529060010190602001808311611e4a57829003601f168201915b50505050508152602001600682015481526020016007820160009054906101000a900473ffffffffffffffffffffffffffffffffffffffff1673ffffffffffffffffffffffffffffffffffffffff1673ffffffffffffffffffffffffffffffffffffffff168152602001600882018054611ee090612bc6565b80601f0160208091040260200160405190810160405280929190818152602001828054611f0c90612bc6565b8015611f595780601f10611f2e57610100808354040283529160200191611f59565b820191906000526020600020905b815481529060010190602001808311611f3c57829003601f168201915b50505050508152602001600982018054611f7290612bc6565b80601f0160208091040260200160405190810160405280929190818152602001828054611f9e90612bc6565b8015611feb5780601f10611fc057610100808354040283529160200191611feb565b820191906000526020600020905b815481529060010190602001808311611fce57829003601f168201915b50505050508152602001600a8201805480602002602001604051908101604052809291908181526020016000905b828210156120c557838290600052602060002001805461203890612bc6565b80601f016020809104026020016040519081016040528092919081815260200182805461206490612bc6565b80156120b15780601f10612086576101008083540402835291602001916120b1565b820191906000526020600020905b81548152906001019060200180831161209457829003601f168201915b505050505081526020019060010190612019565b505050508152602001600b820160009054906101000a900460ff16151515158152505081526020019060010190611bf0565b50505050905090565b600081604051602001612113919061296c565b604051602081830303815290604052805190602001208360405160200161213a919061296c565b60405160208183030381529060405280519060200120141561215f5760019050612164565b600090505b92915050565b600080600090505b83518110156121e7576121c58482815181106121b7577f4e487b7100000000000000000000000000000000000000000000000000000000600052603260045260246000fd5b602002602001015184612100565b156121d45760019150506121ed565b80806121df90612bf8565b915050612172565b50600090505b92915050565b60405180610180016040528060608152602001600081526020016000815260200160608152602001606081526020016060815260200160008152602001600073ffffffffffffffffffffffffffffffffffffffff1681526020016060815260200160608152602001606081526020016000151581525090565b82805461227890612bc6565b90600052602060002090601f01602090048101928261229a57600085556122e1565b82601f106122b357805160ff19168380011785556122e1565b828001600101855582156122e1579182015b828111156122e05782518255916020019190600101906122c5565b5b5090506122ee9190612352565b5090565b828054828255906000526020600020908101928215612341579160200282015b8281111561234057825182908051906020019061233092919061226c565b5091602001919060010190612312565b5b50905061234e919061236f565b5090565b5b8082111561236b576000816000905550600101612353565b5090565b5b8082111561238f57600081816123869190612393565b50600101612370565b5090565b50805461239f90612bc6565b6000825580601f106123b157506123d0565b601f0160209004906000526020600020908101906123cf9190612352565b5b50565b60006123e66123e1846129f1565b6129c0565b9050808382526020820190508260005b85811015612426578135850161240c8882612498565b8452602084019350602083019250506001810190506123f6565b5050509392505050565b600061244361243e84612a1d565b6129c0565b90508281526020810184848401111561245b57600080fd5b612466848285612b84565b509392505050565b600082601f83011261247f57600080fd5b813561248f8482602086016123d3565b91505092915050565b600082601f8301126124a957600080fd5b81356124b9848260208601612430565b91505092915050565b6000813590506124d181612cdf565b92915050565b6000602082840312156124e957600080fd5b600082013567ffffffffffffffff81111561250357600080fd5b61250f84828501612498565b91505092915050565b60008060008060008060008060006101208a8c03121561253757600080fd5b60008a013567ffffffffffffffff81111561255157600080fd5b61255d8c828d01612498565b995050602061256e8c828d016124c2565b985050604061257f8c828d016124c2565b97505060608a013567ffffffffffffffff81111561259c57600080fd5b6125a88c828d01612498565b96505060808a013567ffffffffffffffff8111156125c557600080fd5b6125d18c828d01612498565b95505060a08a013567ffffffffffffffff8111156125ee57600080fd5b6125fa8c828d01612498565b94505060c08a013567ffffffffffffffff81111561261757600080fd5b6126238c828d0161246e565b93505060e08a013567ffffffffffffffff81111561264057600080fd5b61264c8c828d01612498565b9250506101008a013567ffffffffffffffff81111561266a57600080fd5b6126768c828d01612498565b9150509295985092959850929598565b600061269283836127b6565b905092915050565b60006126a68383612820565b905092915050565b6126b781612b3c565b82525050565b60006126c882612a6d565b6126d28185612aa8565b9350836020820285016126e485612a4d565b8060005b8581101561272057848403895281516127018582612686565b945061270c83612a8e565b925060208a019950506001810190506126e8565b50829750879550505050505092915050565b600061273d82612a78565b6127478185612ab9565b93508360208202850161275985612a5d565b8060005b858110156127955784840389528151612776858261269a565b945061278183612a9b565b925060208a0199505060018101905061275d565b50829750879550505050505092915050565b6127b081612b4e565b82525050565b60006127c182612a83565b6127cb8185612aca565b93506127db818560208601612b93565b6127e481612cce565b840191505092915050565b60006127fa82612a83565b6128048185612adb565b9350612814818560208601612b93565b80840191505092915050565b600061018083016000830151848203600086015261283e82826127b6565b9150506020830151612853602086018261294e565b506040830151612866604086018261294e565b506060830151848203606086015261287e82826127b6565b9150506080830151848203608086015261289882826127b6565b91505060a083015184820360a08601526128b282826127b6565b91505060c08301516128c760c086018261294e565b5060e08301516128da60e08601826126ae565b506101008301518482036101008601526128f482826127b6565b91505061012083015184820361012086015261291082826127b6565b91505061014083015184820361014086015261292c82826126bd565b9150506101608301516129436101608601826127a7565b508091505092915050565b61295781612b7a565b82525050565b61296681612b7a565b82525050565b600061297882846127ef565b915081905092915050565b6000602082019050818103600083015261299d8184612732565b905092915050565b60006020820190506129ba600083018461295d565b92915050565b6000604051905081810181811067ffffffffffffffff821117156129e7576129e6612c9f565b5b8060405250919050565b600067ffffffffffffffff821115612a0c57612a0b612c9f565b5b602082029050602081019050919050565b600067ffffffffffffffff821115612a3857612a37612c9f565b5b601f19601f8301169050602081019050919050565b6000819050602082019050919050565b6000819050602082019050919050565b600081519050919050565b600081519050919050565b600081519050919050565b6000602082019050919050565b6000602082019050919050565b600082825260208201905092915050565b600082825260208201905092915050565b600082825260208201905092915050565b600081905092915050565b6000612af182612b7a565b9150612afc83612b7a565b9250827fffffffffffffffffffffffffffffffffffffffffffffffffffffffffffffffff03821115612b3157612b30612c41565b5b828201905092915050565b6000612b4782612b5a565b9050919050565b60008115159050919050565b600073ffffffffffffffffffffffffffffffffffffffff82169050919050565b6000819050919050565b82818337600083830152505050565b60005b83811015612bb1578082015181840152602081019050612b96565b83811115612bc0576000848401525b50505050565b60006002820490506001821680612bde57607f821691505b60208210811415612bf257612bf1612c70565b5b50919050565b6000612c0382612b7a565b91507fffffffffffffffffffffffffffffffffffffffffffffffffffffffffffffffff821415612c3657612c35612c41565b5b600182019050919050565b7f4e487b7100000000000000000000000000000000000000000000000000000000600052601160045260246000fd5b7f4e487b7100000000000000000000000000000000000000000000000000000000600052602260045260246000fd5b7f4e487b7100000000000000000000000000000000000000000000000000000000600052604160045260246000fd5b6000601f19601f8301169050919050565b612ce881612b7a565b8114612cf357600080fd5b5056fea2646970667358221220d69cba50bc3ecc17487aaf199cf39a9cb53ff06b4381f906a21aa9c93495242364736f6c63430008000033",
  "linkReferences": {},
  "deployedLinkReferences": {}
}