{
  "_format": "hh-sol-artifact-1",
  "contractName": "Tracks",
  "sourceName": "contracts/Tracks.sol",
  "abi": [
    {
      "inputs": [
        {
          "internalType": "string",
          "name": "name",
          "type": "string"
        },
        {
          "internalType": "uint256",
          "name": "track_id",
          "type": "uint256"
        },
        {
          "internalType": "uint256",
          "name": "length",
          "type": "uint256"
        },
        {
          "internalType": "string",
          "name": "imgUrl",
          "type": "string"
        },
        {
          "internalType": "string",
          "name": "IPFS_hash",
          "type": "string"
        },
        {
          "internalType": "string",
          "name": "description",
          "type": "string"
        },
        {
          "internalType": "string[]",
          "name": "artists",
          "type": "string[]"
        },
        {
          "internalType": "string",
          "name": "album",
          "type": "string"
        },
        {
          "internalType": "string",
          "name": "added_by_name",
          "type": "string"
        }
      ],
      "name": "addTrack",
      "outputs": [],
      "stateMutability": "nonpayable",
      "type": "function"
    },
    {
      "inputs": [
        {
          "internalType": "string",
          "name": "artist",
          "type": "string"
        }
      ],
      "name": "getArtistTracks",
      "outputs": [
        {
          "components": [
            {
              "internalType": "string",
              "name": "name",
              "type": "string"
            },
            {
              "internalType": "uint256",
              "name": "trackId",
              "type": "uint256"
            },
            {
              "internalType": "uint256",
              "name": "length",
              "type": "uint256"
            },
            {
              "internalType": "string",
              "name": "imgUrl",
              "type": "string"
            },
            {
              "internalType": "string",
              "name": "IPFSHash",
              "type": "string"
            },
            {
              "internalType": "string",
              "name": "description",
              "type": "string"
            },
            {
              "internalType": "uint256",
              "name": "timestamp",
              "type": "uint256"
            },
            {
              "internalType": "address",
              "name": "addedBy",
              "type": "address"
            },
            {
              "internalType": "string",
              "name": "addedByName",
              "type": "string"
            },
            {
              "internalType": "string",
              "name": "album",
              "type": "string"
            },
            {
              "internalType": "string[]",
              "name": "artists",
              "type": "string[]"
            },
            {
              "internalType": "bool",
              "name": "isDeleted",
              "type": "bool"
            }
          ],
          "internalType": "struct Track[]",
          "name": "",
          "type": "tuple[]"
        }
      ],
      "stateMutability": "view",
      "type": "function"
    },
    {
      "inputs": [
        {
          "internalType": "string",
          "name": "track_name",
          "type": "string"
        }
      ],
      "name": "getTracks",
      "outputs": [
        {
          "components": [
            {
              "internalType": "string",
              "name": "name",
              "type": "string"
            },
            {
              "internalType": "uint256",
              "name": "trackId",
              "type": "uint256"
            },
            {
              "internalType": "uint256",
              "name": "length",
              "type": "uint256"
            },
            {
              "internalType": "string",
              "name": "imgUrl",
              "type": "string"
            },
            {
              "internalType": "string",
              "name": "IPFSHash",
              "type": "string"
            },
            {
              "internalType": "string",
              "name": "description",
              "type": "string"
            },
            {
              "internalType": "uint256",
              "name": "timestamp",
              "type": "uint256"
            },
            {
              "internalType": "address",
              "name": "addedBy",
              "type": "address"
            },
            {
              "internalType": "string",
              "name": "addedByName",
              "type": "string"
            },
            {
              "internalType": "string",
              "name": "album",
              "type": "string"
            },
            {
              "internalType": "string[]",
              "name": "artists",
              "type": "string[]"
            },
            {
              "internalType": "bool",
              "name": "isDeleted",
              "type": "bool"
            }
          ],
          "internalType": "struct Track[]",
          "name": "",
          "type": "tuple[]"
        }
      ],
      "stateMutability": "view",
      "type": "function"
    },
    {
      "inputs": [],
      "name": "getTracksAddedByArtist",
      "outputs": [
        {
          "components": [
            {
              "internalType": "string",
              "name": "name",
              "type": "string"
            },
            {
              "internalType": "uint256",
              "name": "trackId",
              "type": "uint256"
            },
            {
              "internalType": "uint256",
              "name": "length",
              "type": "uint256"
            },
            {
              "internalType": "string",
              "name": "imgUrl",
              "type": "string"
            },
            {
              "internalType": "string",
              "name": "IPFSHash",
              "type": "string"
            },
            {
              "internalType": "string",
              "name": "description",
              "type": "string"
            },
            {
              "internalType": "uint256",
              "name": "timestamp",
              "type": "uint256"
            },
            {
              "internalType": "address",
              "name": "addedBy",
              "type": "address"
            },
            {
              "internalType": "string",
              "name": "addedByName",
              "type": "string"
            },
            {
              "internalType": "string",
              "name": "album",
              "type": "string"
            },
            {
              "internalType": "string[]",
              "name": "artists",
              "type": "string[]"
            },
            {
              "internalType": "bool",
              "name": "isDeleted",
              "type": "bool"
            }
          ],
          "internalType": "struct Track[]",
          "name": "",
          "type": "tuple[]"
        }
      ],
      "stateMutability": "view",
      "type": "function"
    },
    {
      "inputs": [],
      "name": "totalTracks",
      "outputs": [
        {
          "internalType": "uint256",
          "name": "",
          "type": "uint256"
        }
      ],
      "stateMutability": "view",
      "type": "function"
    }
  ],
  "bytecode": "0x608060405234801561001057600080fd5b50612762806100206000396000f3fe608060405234801561001057600080fd5b50600436106100575760003560e01c80630a40380f1461005c57806340dee0b51461007a5780635176b1201461009857806360281d54146100b4578063b421ac16146100e4575b600080fd5b610064610114565b604051610071919061240f565b60405180910390f35b6100826108af565b60405161008f9190612431565b60405180910390f35b6100b260048036038101906100ad9190611fa4565b6108bb565b005b6100ce60048036038101906100c99190611f63565b610ab8565b6040516100db919061240f565b60405180910390f35b6100fe60048036038101906100f99190611f63565b6112db565b60405161010b919061240f565b60405180910390f35b60606000805b6000805490508110156101e8573373ffffffffffffffffffffffffffffffffffffffff1660008281548110610178577f4e487b7100000000000000000000000000000000000000000000000000000000600052603260045260246000fd5b90600052602060002090600c020160070160009054906101000a900473ffffffffffffffffffffffffffffffffffffffff1673ffffffffffffffffffffffffffffffffffffffff1614156101d55781806101d19061262e565b9250505b80806101e09061262e565b91505061011a565b5060008167ffffffffffffffff81111561022b577f4e487b7100000000000000000000000000000000000000000000000000000000600052604160045260246000fd5b60405190808252806020026020018201604052801561026457816020015b610251611c7f565b8152602001906001900390816102495790505b5090506000805b6000805490508110156108a5573373ffffffffffffffffffffffffffffffffffffffff16600082815481106102c9577f4e487b7100000000000000000000000000000000000000000000000000000000600052603260045260246000fd5b90600052602060002090600c020160070160009054906101000a900473ffffffffffffffffffffffffffffffffffffffff1673ffffffffffffffffffffffffffffffffffffffff1614156108925760008181548110610351577f4e487b7100000000000000000000000000000000000000000000000000000000600052603260045260246000fd5b90600052602060002090600c02016040518061018001604052908160008201805461037b906125fc565b80601f01602080910402602001604051908101604052809291908181526020018280546103a7906125fc565b80156103f45780601f106103c9576101008083540402835291602001916103f4565b820191906000526020600020905b8154815290600101906020018083116103d757829003601f168201915b505050505081526020016001820154815260200160028201548152602001600382018054610421906125fc565b80601f016020809104026020016040519081016040528092919081815260200182805461044d906125fc565b801561049a5780601f1061046f5761010080835404028352916020019161049a565b820191906000526020600020905b81548152906001019060200180831161047d57829003601f168201915b505050505081526020016004820180546104b3906125fc565b80601f01602080910402602001604051908101604052809291908181526020018280546104df906125fc565b801561052c5780601f106105015761010080835404028352916020019161052c565b820191906000526020600020905b81548152906001019060200180831161050f57829003601f168201915b50505050508152602001600582018054610545906125fc565b80601f0160208091040260200160405190810160405280929190818152602001828054610571906125fc565b80156105be5780601f10610593576101008083540402835291602001916105be565b820191906000526020600020905b8154815290600101906020018083116105a157829003601f168201915b50505050508152602001600682015481526020016007820160009054906101000a900473ffffffffffffffffffffffffffffffffffffffff1673ffffffffffffffffffffffffffffffffffffffff1673ffffffffffffffffffffffffffffffffffffffff168152602001600882018054610637906125fc565b80601f0160208091040260200160405190810160405280929190818152602001828054610663906125fc565b80156106b05780601f10610685576101008083540402835291602001916106b0565b820191906000526020600020905b81548152906001019060200180831161069357829003601f168201915b505050505081526020016009820180546106c9906125fc565b80601f01602080910402602001604051908101604052809291908181526020018280546106f5906125fc565b80156107425780601f1061071757610100808354040283529160200191610742565b820191906000526020600020905b81548152906001019060200180831161072557829003601f168201915b50505050508152602001600a8201805480602002602001604051908101604052809291908181526020016000905b8282101561081c57838290600052602060002001805461078f906125fc565b80601f01602080910402602001604051908101604052809291908181526020018280546107bb906125fc565b80156108085780601f106107dd57610100808354040283529160200191610808565b820191906000526020600020905b8154815290600101906020018083116107eb57829003601f168201915b505050505081526020019060010190610770565b505050508152602001600b820160009054906101000a900460ff161515151581525050838381518110610878577f4e487b7100000000000000000000000000000000000000000000000000000000600052603260045260246000fd5b6020026020010181905250818061088e9061262e565b9250505b808061089d9061262e565b91505061026b565b5081935050505090565b60008080549050905090565b60006040518061018001604052808b81526020018a81526020018981526020018881526020018781526020018681526020014281526020013373ffffffffffffffffffffffffffffffffffffffff16815260200183815260200184815260200185815260200160001515815250905060008190806001815401808255809150506001900390600052602060002090600c02016000909190919091506000820151816000019080519060200190610972929190611cf8565b50602082015181600101556040820151816002015560608201518160030190805190602001906109a3929190611cf8565b5060808201518160040190805190602001906109c0929190611cf8565b5060a08201518160050190805190602001906109dd929190611cf8565b5060c0820151816006015560e08201518160070160006101000a81548173ffffffffffffffffffffffffffffffffffffffff021916908373ffffffffffffffffffffffffffffffffffffffff160217905550610100820151816008019080519060200190610a4c929190611cf8565b50610120820151816009019080519060200190610a6a929190611cf8565b5061014082015181600a019080519060200190610a88929190611d7e565b5061016082015181600b0160006101000a81548160ff021916908315150217905550505050505050505050505050565b60606000805b600080549050811015610bcf57610ba860008281548110610b08577f4e487b7100000000000000000000000000000000000000000000000000000000600052603260045260246000fd5b90600052602060002090600c02016000018054610b24906125fc565b80601f0160208091040260200160405190810160405280929190818152602001828054610b50906125fc565b8015610b9d5780601f10610b7257610100808354040283529160200191610b9d565b820191906000526020600020905b815481529060010190602001808311610b8057829003601f168201915b505050505085611b8c565b15610bbc578180610bb89061262e565b9250505b8080610bc79061262e565b915050610abe565b5060008167ffffffffffffffff811115610c12577f4e487b7100000000000000000000000000000000000000000000000000000000600052604160045260246000fd5b604051908082528060200260200182016040528015610c4b57816020015b610c38611c7f565b815260200190600190039081610c305790505b5090506000805b6000805490508110156112cf57610d3c60008281548110610c9c577f4e487b7100000000000000000000000000000000000000000000000000000000600052603260045260246000fd5b90600052602060002090600c02016000018054610cb8906125fc565b80601f0160208091040260200160405190810160405280929190818152602001828054610ce4906125fc565b8015610d315780601f10610d0657610100808354040283529160200191610d31565b820191906000526020600020905b815481529060010190602001808311610d1457829003601f168201915b505050505087611b8c565b156112bc5760008181548110610d7b577f4e487b7100000000000000000000000000000000000000000000000000000000600052603260045260246000fd5b90600052602060002090600c020160405180610180016040529081600082018054610da5906125fc565b80601f0160208091040260200160405190810160405280929190818152602001828054610dd1906125fc565b8015610e1e5780601f10610df357610100808354040283529160200191610e1e565b820191906000526020600020905b815481529060010190602001808311610e0157829003601f168201915b505050505081526020016001820154815260200160028201548152602001600382018054610e4b906125fc565b80601f0160208091040260200160405190810160405280929190818152602001828054610e77906125fc565b8015610ec45780601f10610e9957610100808354040283529160200191610ec4565b820191906000526020600020905b815481529060010190602001808311610ea757829003601f168201915b50505050508152602001600482018054610edd906125fc565b80601f0160208091040260200160405190810160405280929190818152602001828054610f09906125fc565b8015610f565780601f10610f2b57610100808354040283529160200191610f56565b820191906000526020600020905b815481529060010190602001808311610f3957829003601f168201915b50505050508152602001600582018054610f6f906125fc565b80601f0160208091040260200160405190810160405280929190818152602001828054610f9b906125fc565b8015610fe85780601f10610fbd57610100808354040283529160200191610fe8565b820191906000526020600020905b815481529060010190602001808311610fcb57829003601f168201915b50505050508152602001600682015481526020016007820160009054906101000a900473ffffffffffffffffffffffffffffffffffffffff1673ffffffffffffffffffffffffffffffffffffffff1673ffffffffffffffffffffffffffffffffffffffff168152602001600882018054611061906125fc565b80601f016020809104026020016040519081016040528092919081815260200182805461108d906125fc565b80156110da5780601f106110af576101008083540402835291602001916110da565b820191906000526020600020905b8154815290600101906020018083116110bd57829003601f168201915b505050505081526020016009820180546110f3906125fc565b80601f016020809104026020016040519081016040528092919081815260200182805461111f906125fc565b801561116c5780601f106111415761010080835404028352916020019161116c565b820191906000526020600020905b81548152906001019060200180831161114f57829003601f168201915b50505050508152602001600a8201805480602002602001604051908101604052809291908181526020016000905b828210156112465783829060005260206000200180546111b9906125fc565b80601f01602080910402602001604051908101604052809291908181526020018280546111e5906125fc565b80156112325780601f1061120757610100808354040283529160200191611232565b820191906000526020600020905b81548152906001019060200180831161121557829003601f168201915b50505050508152602001906001019061119a565b505050508152602001600b820160009054906101000a900460ff1615151515815250508383815181106112a2577f4e487b7100000000000000000000000000000000000000000000000000000000600052603260045260246000fd5b602002602001018190525081806112b89061262e565b9250505b80806112c79061262e565b915050610c52565b50819350505050919050565b60606000805b600080549050811015611439576114126000828154811061132b577f4e487b7100000000000000000000000000000000000000000000000000000000600052603260045260246000fd5b90600052602060002090600c0201600a01805480602002602001604051908101604052809291908181526020016000905b8282101561140857838290600052602060002001805461137b906125fc565b80601f01602080910402602001604051908101604052809291908181526020018280546113a7906125fc565b80156113f45780601f106113c9576101008083540402835291602001916113f4565b820191906000526020600020905b8154815290600101906020018083116113d757829003601f168201915b50505050508152602001906001019061135c565b5050505085611bf6565b156114265781806114229061262e565b9250505b80806114319061262e565b9150506112e1565b5060008167ffffffffffffffff81111561147c577f4e487b7100000000000000000000000000000000000000000000000000000000600052604160045260246000fd5b6040519080825280602002602001820160405280156114b557816020015b6114a2611c7f565b81526020019060019003908161149a5790505b5090506000805b600080549050811015611b80576115ed60008281548110611506577f4e487b7100000000000000000000000000000000000000000000000000000000600052603260045260246000fd5b90600052602060002090600c0201600a01805480602002602001604051908101604052809291908181526020016000905b828210156115e3578382906000526020600020018054611556906125fc565b80601f0160208091040260200160405190810160405280929190818152602001828054611582906125fc565b80156115cf5780601f106115a4576101008083540402835291602001916115cf565b820191906000526020600020905b8154815290600101906020018083116115b257829003601f168201915b505050505081526020019060010190611537565b5050505087611bf6565b15611b6d576000818154811061162c577f4e487b7100000000000000000000000000000000000000000000000000000000600052603260045260246000fd5b90600052602060002090600c020160405180610180016040529081600082018054611656906125fc565b80601f0160208091040260200160405190810160405280929190818152602001828054611682906125fc565b80156116cf5780601f106116a4576101008083540402835291602001916116cf565b820191906000526020600020905b8154815290600101906020018083116116b257829003601f168201915b5050505050815260200160018201548152602001600282015481526020016003820180546116fc906125fc565b80601f0160208091040260200160405190810160405280929190818152602001828054611728906125fc565b80156117755780601f1061174a57610100808354040283529160200191611775565b820191906000526020600020905b81548152906001019060200180831161175857829003601f168201915b5050505050815260200160048201805461178e906125fc565b80601f01602080910402602001604051908101604052809291908181526020018280546117ba906125fc565b80156118075780601f106117dc57610100808354040283529160200191611807565b820191906000526020600020905b8154815290600101906020018083116117ea57829003601f168201915b50505050508152602001600582018054611820906125fc565b80601f016020809104026020016040519081016040528092919081815260200182805461184c906125fc565b80156118995780601f1061186e57610100808354040283529160200191611899565b820191906000526020600020905b81548152906001019060200180831161187c57829003601f168201915b50505050508152602001600682015481526020016007820160009054906101000a900473ffffffffffffffffffffffffffffffffffffffff1673ffffffffffffffffffffffffffffffffffffffff1673ffffffffffffffffffffffffffffffffffffffff168152602001600882018054611912906125fc565b80601f016020809104026020016040519081016040528092919081815260200182805461193e906125fc565b801561198b5780601f106119605761010080835404028352916020019161198b565b820191906000526020600020905b81548152906001019060200180831161196e57829003601f168201915b505050505081526020016009820180546119a4906125fc565b80601f01602080910402602001604051908101604052809291908181526020018280546119d0906125fc565b8015611a1d5780601f106119f257610100808354040283529160200191611a1d565b820191906000526020600020905b815481529060010190602001808311611a0057829003601f168201915b50505050508152602001600a8201805480602002602001604051908101604052809291908181526020016000905b82821015611af7578382906000526020600020018054611a6a906125fc565b80601f0160208091040260200160405190810160405280929190818152602001828054611a96906125fc565b8015611ae35780601f10611ab857610100808354040283529160200191611ae3565b820191906000526020600020905b815481529060010190602001808311611ac657829003601f168201915b505050505081526020019060010190611a4b565b505050508152602001600b820160009054906101000a900460ff161515151581525050838381518110611b53577f4e487b7100000000000000000000000000000000000000000000000000000000600052603260045260246000fd5b60200260200101819052508180611b699061262e565b9250505b8080611b789061262e565b9150506114bc565b50819350505050919050565b600081604051602001611b9f91906123f8565b6040516020818303038152906040528051906020012083604051602001611bc691906123f8565b604051602081830303815290604052805190602001201415611beb5760019050611bf0565b600090505b92915050565b600080600090505b8351811015611c7357611c51848281518110611c43577f4e487b7100000000000000000000000000000000000000000000000000000000600052603260045260246000fd5b602002602001015184611b8c565b15611c60576001915050611c79565b8080611c6b9061262e565b915050611bfe565b50600090505b92915050565b60405180610180016040528060608152602001600081526020016000815260200160608152602001606081526020016060815260200160008152602001600073ffffffffffffffffffffffffffffffffffffffff1681526020016060815260200160608152602001606081526020016000151581525090565b828054611d04906125fc565b90600052602060002090601f016020900481019282611d265760008555611d6d565b82601f10611d3f57805160ff1916838001178555611d6d565b82800160010185558215611d6d579182015b82811115611d6c578251825591602001919060010190611d51565b5b509050611d7a9190611dde565b5090565b828054828255906000526020600020908101928215611dcd579160200282015b82811115611dcc578251829080519060200190611dbc929190611cf8565b5091602001919060010190611d9e565b5b509050611dda9190611dfb565b5090565b5b80821115611df7576000816000905550600101611ddf565b5090565b5b80821115611e1b5760008181611e129190611e1f565b50600101611dfc565b5090565b508054611e2b906125fc565b6000825580601f10611e3d5750611e5c565b601f016020900490600052602060002090810190611e5b9190611dde565b5b50565b6000611e72611e6d8461247d565b61244c565b9050808382526020820190508260005b85811015611eb25781358501611e988882611f24565b845260208401935060208301925050600181019050611e82565b5050509392505050565b6000611ecf611eca846124a9565b61244c565b905082815260208101848484011115611ee757600080fd5b611ef28482856125ba565b509392505050565b600082601f830112611f0b57600080fd5b8135611f1b848260208601611e5f565b91505092915050565b600082601f830112611f3557600080fd5b8135611f45848260208601611ebc565b91505092915050565b600081359050611f5d81612715565b92915050565b600060208284031215611f7557600080fd5b600082013567ffffffffffffffff811115611f8f57600080fd5b611f9b84828501611f24565b91505092915050565b60008060008060008060008060006101208a8c031215611fc357600080fd5b60008a013567ffffffffffffffff811115611fdd57600080fd5b611fe98c828d01611f24565b9950506020611ffa8c828d01611f4e565b985050604061200b8c828d01611f4e565b97505060608a013567ffffffffffffffff81111561202857600080fd5b6120348c828d01611f24565b96505060808a013567ffffffffffffffff81111561205157600080fd5b61205d8c828d01611f24565b95505060a08a013567ffffffffffffffff81111561207a57600080fd5b6120868c828d01611f24565b94505060c08a013567ffffffffffffffff8111156120a357600080fd5b6120af8c828d01611efa565b93505060e08a013567ffffffffffffffff8111156120cc57600080fd5b6120d88c828d01611f24565b9250506101008a013567ffffffffffffffff8111156120f657600080fd5b6121028c828d01611f24565b9150509295985092959850929598565b600061211e8383612242565b905092915050565b600061213283836122ac565b905092915050565b61214381612572565b82525050565b6000612154826124f9565b61215e8185612534565b935083602082028501612170856124d9565b8060005b858110156121ac578484038952815161218d8582612112565b94506121988361251a565b925060208a01995050600181019050612174565b50829750879550505050505092915050565b60006121c982612504565b6121d38185612545565b9350836020820285016121e5856124e9565b8060005b8581101561222157848403895281516122028582612126565b945061220d83612527565b925060208a019950506001810190506121e9565b50829750879550505050505092915050565b61223c81612584565b82525050565b600061224d8261250f565b6122578185612556565b93506122678185602086016125c9565b61227081612704565b840191505092915050565b60006122868261250f565b6122908185612567565b93506122a08185602086016125c9565b80840191505092915050565b60006101808301600083015184820360008601526122ca8282612242565b91505060208301516122df60208601826123da565b5060408301516122f260408601826123da565b506060830151848203606086015261230a8282612242565b915050608083015184820360808601526123248282612242565b91505060a083015184820360a086015261233e8282612242565b91505060c083015161235360c08601826123da565b5060e083015161236660e086018261213a565b506101008301518482036101008601526123808282612242565b91505061012083015184820361012086015261239c8282612242565b9150506101408301518482036101408601526123b88282612149565b9150506101608301516123cf610160860182612233565b508091505092915050565b6123e3816125b0565b82525050565b6123f2816125b0565b82525050565b6000612404828461227b565b915081905092915050565b6000602082019050818103600083015261242981846121be565b905092915050565b600060208201905061244660008301846123e9565b92915050565b6000604051905081810181811067ffffffffffffffff82111715612473576124726126d5565b5b8060405250919050565b600067ffffffffffffffff821115612498576124976126d5565b5b602082029050602081019050919050565b600067ffffffffffffffff8211156124c4576124c36126d5565b5b601f19601f8301169050602081019050919050565b6000819050602082019050919050565b6000819050602082019050919050565b600081519050919050565b600081519050919050565b600081519050919050565b6000602082019050919050565b6000602082019050919050565b600082825260208201905092915050565b600082825260208201905092915050565b600082825260208201905092915050565b600081905092915050565b600061257d82612590565b9050919050565b60008115159050919050565b600073ffffffffffffffffffffffffffffffffffffffff82169050919050565b6000819050919050565b82818337600083830152505050565b60005b838110156125e75780820151818401526020810190506125cc565b838111156125f6576000848401525b50505050565b6000600282049050600182168061261457607f821691505b60208210811415612628576126276126a6565b5b50919050565b6000612639826125b0565b91507fffffffffffffffffffffffffffffffffffffffffffffffffffffffffffffffff82141561266c5761266b612677565b5b600182019050919050565b7f4e487b7100000000000000000000000000000000000000000000000000000000600052601160045260246000fd5b7f4e487b7100000000000000000000000000000000000000000000000000000000600052602260045260246000fd5b7f4e487b7100000000000000000000000000000000000000000000000000000000600052604160045260246000fd5b6000601f19601f8301169050919050565b61271e816125b0565b811461272957600080fd5b5056fea2646970667358221220c35462bceaac6444e62a35b114c1906469fac216ce4c68ccaafe8f762ce4c32a64736f6c63430008000033",
  "linkReferences": {},
  "deployedLinkReferences": {}
}